{
  "contractName": "LSBank",
  "abi": [
    {
      "inputs": [
        {
          "internalType": "contract LSToken",
          "name": "_token",
          "type": "address"
        }
      ],
      "stateMutability": "nonpayable",
      "type": "constructor"
    },
    {
      "anonymous": false,
      "inputs": [
        {
          "indexed": false,
          "internalType": "address",
          "name": "id",
          "type": "address"
        },
        {
          "indexed": false,
          "internalType": "uint256",
          "name": "collateral",
          "type": "uint256"
        },
        {
          "indexed": false,
          "internalType": "bool",
          "name": "isBorrowed",
          "type": "bool"
        },
        {
          "indexed": false,
          "internalType": "uint256",
          "name": "loan",
          "type": "uint256"
        }
      ],
      "name": "BorrowedTKN",
      "type": "event"
    },
    {
      "anonymous": false,
      "inputs": [
        {
          "indexed": false,
          "internalType": "address",
          "name": "id",
          "type": "address"
        },
        {
          "indexed": false,
          "internalType": "uint256",
          "name": "balance",
          "type": "uint256"
        },
        {
          "indexed": false,
          "internalType": "uint256",
          "name": "timestamp",
          "type": "uint256"
        },
        {
          "indexed": false,
          "internalType": "bool",
          "name": "isDeposited",
          "type": "bool"
        }
      ],
      "name": "DepositedETH",
      "type": "event"
    },
    {
      "anonymous": false,
      "inputs": [
        {
          "indexed": false,
          "internalType": "address",
          "name": "id",
          "type": "address"
        },
        {
          "indexed": false,
          "internalType": "uint256",
          "name": "collateral",
          "type": "uint256"
        },
        {
          "indexed": false,
          "internalType": "bool",
          "name": "isBorrowed",
          "type": "bool"
        },
        {
          "indexed": false,
          "internalType": "uint256",
          "name": "fee",
          "type": "uint256"
        }
      ],
      "name": "ReturnedTKN",
      "type": "event"
    },
    {
      "anonymous": false,
      "inputs": [
        {
          "indexed": false,
          "internalType": "address",
          "name": "id",
          "type": "address"
        },
        {
          "indexed": false,
          "internalType": "uint256",
          "name": "balance",
          "type": "uint256"
        },
        {
          "indexed": false,
          "internalType": "uint256",
          "name": "timestamp",
          "type": "uint256"
        },
        {
          "indexed": false,
          "internalType": "bool",
          "name": "isDeposited",
          "type": "bool"
        },
        {
          "indexed": false,
          "internalType": "uint256",
          "name": "interest",
          "type": "uint256"
        }
      ],
      "name": "WithdrawnEth",
      "type": "event"
    },
    {
      "inputs": [
        {
          "internalType": "address",
          "name": "",
          "type": "address"
        }
      ],
      "name": "accounts",
      "outputs": [
        {
          "internalType": "address",
          "name": "id",
          "type": "address"
        },
        {
          "internalType": "uint256",
          "name": "balance",
          "type": "uint256"
        },
        {
          "internalType": "uint256",
          "name": "collateral",
          "type": "uint256"
        },
        {
          "internalType": "uint256",
          "name": "timestamp",
          "type": "uint256"
        },
        {
          "internalType": "bool",
          "name": "isDeposited",
          "type": "bool"
        },
        {
          "internalType": "bool",
          "name": "isBorrowed",
          "type": "bool"
        }
      ],
      "stateMutability": "view",
      "type": "function"
    },
    {
      "inputs": [],
      "name": "depositETH",
      "outputs": [],
      "stateMutability": "payable",
      "type": "function"
    },
    {
      "inputs": [],
      "name": "withdrawETH",
      "outputs": [],
      "stateMutability": "payable",
      "type": "function"
    },
    {
      "inputs": [],
      "name": "borrowTKN",
      "outputs": [],
      "stateMutability": "payable",
      "type": "function"
    },
    {
      "inputs": [],
      "name": "returnTKN",
      "outputs": [],
      "stateMutability": "nonpayable",
      "type": "function"
    }
  ],
  "bytecode": "0x60806040523480156200001157600080fd5b506040516200170c3803806200170c833981810160405281019062000037919062000095565b806000806101000a81548173ffffffffffffffffffffffffffffffffffffffff021916908373ffffffffffffffffffffffffffffffffffffffff1602179055505062000123565b6000815190506200008f8162000109565b92915050565b600060208284031215620000a857600080fd5b6000620000b8848285016200007e565b91505092915050565b6000620000ce82620000e9565b9050919050565b6000620000e282620000c1565b9050919050565b600073ffffffffffffffffffffffffffffffffffffffff82169050919050565b6200011481620000d5565b81146200012057600080fd5b50565b6115d980620001336000396000f3fe60806040526004361061004a5760003560e01c80630d7252bb1461004f5780635e5c06e214610059578063b624c2ff1461009b578063e086e5ec146100b2578063f6326fb3146100bc575b600080fd5b6100576100c6565b005b34801561006557600080fd5b50610080600480360381019061007b9190610f5d565b610443565b604051610092969594939291906111c2565b60405180910390f35b3480156100a757600080fd5b506100b06104b9565b005b6100ba610874565b005b6100c4610c49565b005b6000600160003373ffffffffffffffffffffffffffffffffffffffff1673ffffffffffffffffffffffffffffffffffffffff1681526020019081526020016000206040518060c00160405290816000820160009054906101000a900473ffffffffffffffffffffffffffffffffffffffff1673ffffffffffffffffffffffffffffffffffffffff1673ffffffffffffffffffffffffffffffffffffffff1681526020016001820154815260200160028201548152602001600382015481526020016004820160009054906101000a900460ff161515151581526020016004820160019054906101000a900460ff1615151515815250509050662386f26fc10000341015610208576040517f08c379a00000000000000000000000000000000000000000000000000000000081526004016101ff90611283565b60405180910390fd5b600015158160a00151151514610253576040517f08c379a000000000000000000000000000000000000000000000000000000000815260040161024a90611223565b60405180910390fd5b3481604001818152505060006002826040015161027091906112f4565b905060008054906101000a900473ffffffffffffffffffffffffffffffffffffffff1673ffffffffffffffffffffffffffffffffffffffff166327fe19cf3033846040518463ffffffff1660e01b81526004016102cf939291906110ae565b600060405180830381600087803b1580156102e957600080fd5b505af11580156102fd573d6000803e3d6000fd5b5050505060018260a001901515908115158152505081600160003373ffffffffffffffffffffffffffffffffffffffff1673ffffffffffffffffffffffffffffffffffffffff16815260200190815260200160002060008201518160000160006101000a81548173ffffffffffffffffffffffffffffffffffffffff021916908373ffffffffffffffffffffffffffffffffffffffff16021790555060208201518160010155604082015181600201556060820151816003015560808201518160040160006101000a81548160ff02191690831515021790555060a08201518160040160016101000a81548160ff0219169083151502179055509050507f065b07da98d287ec0344ee5b7d5c1ef8be00af8f8cd20e2ba5d864040a3fc44b3383604001518460a001518460405161043794939291906110e5565b60405180910390a15050565b60016020528060005260406000206000915090508060000160009054906101000a900473ffffffffffffffffffffffffffffffffffffffff16908060010154908060020154908060030154908060040160009054906101000a900460ff16908060040160019054906101000a900460ff16905086565b6000600160003373ffffffffffffffffffffffffffffffffffffffff1673ffffffffffffffffffffffffffffffffffffffff1681526020019081526020016000206040518060c00160405290816000820160009054906101000a900473ffffffffffffffffffffffffffffffffffffffff1673ffffffffffffffffffffffffffffffffffffffff1673ffffffffffffffffffffffffffffffffffffffff1681526020016001820154815260200160028201548152602001600382015481526020016004820160009054906101000a900460ff161515151581526020016004820160019054906101000a900460ff1615151515815250509050600115158160a001511515146105fc576040517f08c379a00000000000000000000000000000000000000000000000000000000081526004016105f390611243565b60405180910390fd5b60008054906101000a900473ffffffffffffffffffffffffffffffffffffffff1673ffffffffffffffffffffffffffffffffffffffff166323b872dd33306002856040015161064b91906112f4565b6040518463ffffffff1660e01b8152600401610669939291906110ae565b602060405180830381600087803b15801561068357600080fd5b505af1158015610697573d6000803e3d6000fd5b505050506040513d601f19601f820116820180604052508101906106bb9190610f86565b506000600a82604001516106cf91906112f4565b90503373ffffffffffffffffffffffffffffffffffffffff166108fc8284604001516106fb919061137f565b9081150290604051600060405180830381858888f19350505050158015610726573d6000803e3d6000fd5b50600082604001818152505060008260a001901515908115158152505081600160003373ffffffffffffffffffffffffffffffffffffffff1673ffffffffffffffffffffffffffffffffffffffff16815260200190815260200160002060008201518160000160006101000a81548173ffffffffffffffffffffffffffffffffffffffff021916908373ffffffffffffffffffffffffffffffffffffffff16021790555060208201518160010155604082015181600201556060820151816003015560808201518160040160006101000a81548160ff02191690831515021790555060a08201518160040160016101000a81548160ff0219169083151502179055509050507f4a738530f39c5788496b5a9e84383a8e8220a4a0874aa96f7d84b437048100743383604001518460a001518460405161086894939291906110e5565b60405180910390a15050565b6000600160003373ffffffffffffffffffffffffffffffffffffffff1673ffffffffffffffffffffffffffffffffffffffff1681526020019081526020016000206040518060c00160405290816000820160009054906101000a900473ffffffffffffffffffffffffffffffffffffffff1673ffffffffffffffffffffffffffffffffffffffff1673ffffffffffffffffffffffffffffffffffffffff1681526020016001820154815260200160028201548152602001600382015481526020016004820160009054906101000a900460ff161515151581526020016004820160019054906101000a900460ff16151515158152505090506001151581608001511515146109b7576040517f08c379a00000000000000000000000000000000000000000000000000000000081526004016109ae90611263565b60405180910390fd5b60008160600151426109c9919061137f565b905060006301e133806064600a85602001516109e59190611325565b6109ef91906112f4565b6109f991906112f4565b905060008282610a099190611325565b90503373ffffffffffffffffffffffffffffffffffffffff166108fc85602001519081150290604051600060405180830381858888f19350505050158015610a55573d6000803e3d6000fd5b5060008054906101000a900473ffffffffffffffffffffffffffffffffffffffff1673ffffffffffffffffffffffffffffffffffffffff166327fe19cf3033846040518463ffffffff1660e01b8152600401610ab3939291906110ae565b600060405180830381600087803b158015610acd57600080fd5b505af1158015610ae1573d6000803e3d6000fd5b5050505060008460200181815250506000846060018181525050600084608001901515908115158152505083600160003373ffffffffffffffffffffffffffffffffffffffff1673ffffffffffffffffffffffffffffffffffffffff16815260200190815260200160002060008201518160000160006101000a81548173ffffffffffffffffffffffffffffffffffffffff021916908373ffffffffffffffffffffffffffffffffffffffff16021790555060208201518160010155604082015181600201556060820151816003015560808201518160040160006101000a81548160ff02191690831515021790555060a08201518160040160016101000a81548160ff0219169083151502179055509050507fe5364eab14bb4b224df7182430dfe739e8fde625d6057456d8a77bf38ee760bf846000015185602001518660600151876080015185604051610c3b95949392919061116f565b60405180910390a150505050565b6000600160003373ffffffffffffffffffffffffffffffffffffffff1673ffffffffffffffffffffffffffffffffffffffff1681526020019081526020016000206040518060c00160405290816000820160009054906101000a900473ffffffffffffffffffffffffffffffffffffffff1673ffffffffffffffffffffffffffffffffffffffff1673ffffffffffffffffffffffffffffffffffffffff1681526020016001820154815260200160028201548152602001600382015481526020016004820160009054906101000a900460ff161515151581526020016004820160019054906101000a900460ff1615151515815250509050662386f26fc10000341015610d8b576040517f08c379a0000000000000000000000000000000000000000000000000000000008152600401610d82906112a3565b60405180910390fd5b600015158160800151151514610dd6576040517f08c379a0000000000000000000000000000000000000000000000000000000008152600401610dcd906112c3565b60405180910390fd5b3481602001818152505042816060018181525050600181608001901515908115158152505080600160003373ffffffffffffffffffffffffffffffffffffffff1673ffffffffffffffffffffffffffffffffffffffff16815260200190815260200160002060008201518160000160006101000a81548173ffffffffffffffffffffffffffffffffffffffff021916908373ffffffffffffffffffffffffffffffffffffffff16021790555060208201518160010155604082015181600201556060820151816003015560808201518160040160006101000a81548160ff02191690831515021790555060a08201518160040160016101000a81548160ff0219169083151502179055509050507fb8a2e7101b504c9717495a4ab307d57033b35d311bd125fd5324661bb1acee148160000151826020015183606001518460800151604051610f28949392919061112a565b60405180910390a150565b600081359050610f4281611575565b92915050565b600081519050610f578161158c565b92915050565b600060208284031215610f6f57600080fd5b6000610f7d84828501610f33565b91505092915050565b600060208284031215610f9857600080fd5b6000610fa684828501610f48565b91505092915050565b610fb8816113b3565b82525050565b610fc7816113c5565b82525050565b6000610fda601c836112e3565b9150610fe582611459565b602082019050919050565b6000610ffd600e836112e3565b915061100882611482565b602082019050919050565b6000611020600a836112e3565b915061102b826114ab565b602082019050919050565b60006110436025836112e3565b915061104e826114d4565b604082019050919050565b60006110666013836112e3565b915061107182611523565b602082019050919050565b60006110896011836112e3565b91506110948261154c565b602082019050919050565b6110a8816113f1565b82525050565b60006060820190506110c36000830186610faf565b6110d06020830185610faf565b6110dd604083018461109f565b949350505050565b60006080820190506110fa6000830187610faf565b611107602083018661109f565b6111146040830185610fbe565b611121606083018461109f565b95945050505050565b600060808201905061113f6000830187610faf565b61114c602083018661109f565b611159604083018561109f565b6111666060830184610fbe565b95945050505050565b600060a0820190506111846000830188610faf565b611191602083018761109f565b61119e604083018661109f565b6111ab6060830185610fbe565b6111b8608083018461109f565b9695505050505050565b600060c0820190506111d76000830189610faf565b6111e4602083018861109f565b6111f1604083018761109f565b6111fe606083018661109f565b61120b6080830185610fbe565b61121860a0830184610fbe565b979650505050505050565b6000602082019050818103600083015261123c81610fcd565b9050919050565b6000602082019050818103600083015261125c81610ff0565b9050919050565b6000602082019050818103600083015261127c81611013565b9050919050565b6000602082019050818103600083015261129c81611036565b9050919050565b600060208201905081810360008301526112bc81611059565b9050919050565b600060208201905081810360008301526112dc8161107c565b9050919050565b600082825260208201905092915050565b60006112ff826113f1565b915061130a836113f1565b92508261131a5761131961142a565b5b828204905092915050565b6000611330826113f1565b915061133b836113f1565b9250817fffffffffffffffffffffffffffffffffffffffffffffffffffffffffffffffff0483118215151615611374576113736113fb565b5b828202905092915050565b600061138a826113f1565b9150611395836113f1565b9250828210156113a8576113a76113fb565b5b828203905092915050565b60006113be826113d1565b9050919050565b60008115159050919050565b600073ffffffffffffffffffffffffffffffffffffffff82169050919050565b6000819050919050565b7f4e487b7100000000000000000000000000000000000000000000000000000000600052601160045260246000fd5b7f4e487b7100000000000000000000000000000000000000000000000000000000600052601260045260246000fd5b7f4572726f723a204c6f616e20697320616c72656164792074616b656e00000000600082015250565b7f4e6f20416374697665204c6f616e000000000000000000000000000000000000600082015250565b7f4e6f742041637469766500000000000000000000000000000000000000000000600082015250565b7f4572726f723a20436f6c6c61746572616c206d757374206265203e3d20302e3060008201527f3120455448000000000000000000000000000000000000000000000000000000602082015250565b7f4d757374206265203e3d20302e30312045544800000000000000000000000000600082015250565b7f416c7265616479204465706f7369746564000000000000000000000000000000600082015250565b61157e816113b3565b811461158957600080fd5b50565b611595816113c5565b81146115a057600080fd5b5056fea26469706673582212207bbf5c3f4e2a5126da1c824736495b9e3440ae2ce7c6ec2518db89cbaa373cd164736f6c63430008040033",
  "immutableReferences": {},
  "source": "// SPDX-License-Identifier: MIT\r\npragma solidity ^0.8.0;\r\n\r\nimport \"./LSToken.sol\";\r\n\r\ncontract LSBank {\r\n    LSToken private token;\r\n\r\n    struct Account {\r\n        address id;\r\n        uint256 balance;\r\n        uint256 collateral;\r\n        uint256 timestamp;\r\n        bool isDeposited;\r\n        bool isBorrowed;\r\n    }\r\n\r\n    mapping(address => Account) public accounts;\r\n\r\n    event DepositedETH(\r\n        address id,\r\n        uint256 balance,\r\n        uint256 timestamp,\r\n        bool isDeposited\r\n    );\r\n\r\n    event WithdrawnEth(\r\n        address id,\r\n        uint256 balance,\r\n        uint256 timestamp,\r\n        bool isDeposited,\r\n        uint256 interest\r\n    );\r\n\r\n    event BorrowedTKN(\r\n        address id,\r\n        uint256 collateral,\r\n        bool isBorrowed,\r\n        uint256 loan\r\n    );\r\n\r\n    event ReturnedTKN(\r\n        address id,\r\n        uint256 collateral,\r\n        bool isBorrowed,\r\n        uint256 fee\r\n    );\r\n\r\n    constructor(LSToken _token) {\r\n        token = _token;\r\n    }\r\n\r\n    function depositETH() public payable {\r\n        Account memory _account = accounts[msg.sender];\r\n\r\n        require(msg.value >= 1e16, \"Must be >= 0.01 ETH\");\r\n        require(_account.isDeposited == false, \"Already Deposited\");\r\n\r\n        _account.balance = msg.value;\r\n        _account.timestamp = block.timestamp;\r\n        _account.isDeposited = true;\r\n\r\n        accounts[msg.sender] = _account;\r\n\r\n        emit DepositedETH(\r\n            _account.id,\r\n            _account.balance,\r\n            _account.timestamp,\r\n            _account.isDeposited\r\n        );\r\n    }\r\n\r\n    function withdrawETH() public payable {\r\n        Account memory _account = accounts[msg.sender];\r\n        require(_account.isDeposited == true, \"Not Active\");\r\n        uint256 period = block.timestamp - _account.timestamp;\r\n        uint256 interestPerSecond = ((_account.balance * 10) / 100) / 31536000;\r\n        uint256 interest = interestPerSecond * period;\r\n\r\n        payable(msg.sender).transfer(_account.balance);\r\n\r\n        token.mintTKN(address(this), msg.sender, interest);\r\n\r\n        _account.balance = 0;\r\n        _account.timestamp = 0;\r\n        _account.isDeposited = false;\r\n\r\n        accounts[msg.sender] = _account;\r\n\r\n        emit WithdrawnEth(\r\n            _account.id,\r\n            _account.balance,\r\n            _account.timestamp,\r\n            _account.isDeposited,\r\n            interest\r\n        );\r\n    }\r\n\r\n    function borrowTKN() public payable {\r\n        Account memory _account = accounts[msg.sender];\r\n\r\n        require(msg.value >= 1e16, \"Error: Collateral must be >= 0.01 ETH\");\r\n        require(_account.isBorrowed == false, \"Error: Loan is already taken\");\r\n\r\n        _account.collateral = msg.value;\r\n\r\n        uint256 loan = _account.collateral / 2;\r\n\r\n        token.mintTKN(address(this), msg.sender, loan);\r\n\r\n        _account.isBorrowed = true;\r\n\r\n        accounts[msg.sender] = _account;\r\n\r\n        emit BorrowedTKN(\r\n            msg.sender,\r\n            _account.collateral,\r\n            _account.isBorrowed,\r\n            loan\r\n        );\r\n    }\r\n\r\n    function returnTKN() public {\r\n        Account memory _account = accounts[msg.sender];\r\n\r\n        require(_account.isBorrowed == true, \"No Active Loan\");\r\n\r\n        token.transferFrom(msg.sender, address(this), _account.collateral / 2);\r\n\r\n        uint256 fee = _account.collateral / 10;\r\n\r\n        payable(msg.sender).transfer(_account.collateral - fee);\r\n\r\n        _account.collateral = 0;\r\n        _account.isBorrowed = false;\r\n\r\n        accounts[msg.sender] = _account;\r\n\r\n        emit ReturnedTKN(\r\n            msg.sender,\r\n            _account.collateral,\r\n            _account.isBorrowed,\r\n            fee\r\n        );\r\n    }\r\n}\r\n",
  "sourcePath": "C:\\Users\\roone\\Desktop\\Apex\\Falcon\\bobr\\contracts\\LSBank.sol",
  "compiler": {
    "name": "solc",
    "version": "0.8.4+commit.c7e474f2.Emscripten.clang"
  },
  "schemaVersion": "3.4.4",
  "updatedAt": "2022-03-15T02:31:05.182Z",
  "devdoc": {
    "kind": "dev",
    "methods": {},
    "version": 1
  },
  "userdoc": {
    "kind": "user",
    "methods": {},
    "version": 1
  }
}