{
  "contractName": "LSToken",
  "abi": [
    {
      "inputs": [],
      "stateMutability": "payable",
      "type": "constructor"
    },
    {
      "anonymous": false,
      "inputs": [
        {
          "indexed": true,
          "internalType": "address",
          "name": "owner",
          "type": "address"
        },
        {
          "indexed": true,
          "internalType": "address",
          "name": "spender",
          "type": "address"
        },
        {
          "indexed": false,
          "internalType": "uint256",
          "name": "value",
          "type": "uint256"
        }
      ],
      "name": "Approval",
      "type": "event"
    },
    {
      "anonymous": false,
      "inputs": [
        {
          "indexed": true,
          "internalType": "address",
          "name": "from",
          "type": "address"
        },
        {
          "indexed": false,
          "internalType": "address",
          "name": "to",
          "type": "address"
        }
      ],
      "name": "MinterChanged",
      "type": "event"
    },
    {
      "anonymous": false,
      "inputs": [
        {
          "indexed": true,
          "internalType": "address",
          "name": "from",
          "type": "address"
        },
        {
          "indexed": true,
          "internalType": "address",
          "name": "to",
          "type": "address"
        },
        {
          "indexed": false,
          "internalType": "uint256",
          "name": "value",
          "type": "uint256"
        }
      ],
      "name": "Transfer",
      "type": "event"
    },
    {
      "inputs": [
        {
          "internalType": "address",
          "name": "owner",
          "type": "address"
        },
        {
          "internalType": "address",
          "name": "spender",
          "type": "address"
        }
      ],
      "name": "allowance",
      "outputs": [
        {
          "internalType": "uint256",
          "name": "",
          "type": "uint256"
        }
      ],
      "stateMutability": "view",
      "type": "function"
    },
    {
      "inputs": [
        {
          "internalType": "address",
          "name": "spender",
          "type": "address"
        },
        {
          "internalType": "uint256",
          "name": "amount",
          "type": "uint256"
        }
      ],
      "name": "approve",
      "outputs": [
        {
          "internalType": "bool",
          "name": "",
          "type": "bool"
        }
      ],
      "stateMutability": "nonpayable",
      "type": "function"
    },
    {
      "inputs": [
        {
          "internalType": "address",
          "name": "account",
          "type": "address"
        }
      ],
      "name": "balanceOf",
      "outputs": [
        {
          "internalType": "uint256",
          "name": "",
          "type": "uint256"
        }
      ],
      "stateMutability": "view",
      "type": "function"
    },
    {
      "inputs": [],
      "name": "decimals",
      "outputs": [
        {
          "internalType": "uint8",
          "name": "",
          "type": "uint8"
        }
      ],
      "stateMutability": "view",
      "type": "function"
    },
    {
      "inputs": [
        {
          "internalType": "address",
          "name": "spender",
          "type": "address"
        },
        {
          "internalType": "uint256",
          "name": "subtractedValue",
          "type": "uint256"
        }
      ],
      "name": "decreaseAllowance",
      "outputs": [
        {
          "internalType": "bool",
          "name": "",
          "type": "bool"
        }
      ],
      "stateMutability": "nonpayable",
      "type": "function"
    },
    {
      "inputs": [
        {
          "internalType": "address",
          "name": "spender",
          "type": "address"
        },
        {
          "internalType": "uint256",
          "name": "addedValue",
          "type": "uint256"
        }
      ],
      "name": "increaseAllowance",
      "outputs": [
        {
          "internalType": "bool",
          "name": "",
          "type": "bool"
        }
      ],
      "stateMutability": "nonpayable",
      "type": "function"
    },
    {
      "inputs": [],
      "name": "minter",
      "outputs": [
        {
          "internalType": "address",
          "name": "",
          "type": "address"
        }
      ],
      "stateMutability": "view",
      "type": "function"
    },
    {
      "inputs": [],
      "name": "name",
      "outputs": [
        {
          "internalType": "string",
          "name": "",
          "type": "string"
        }
      ],
      "stateMutability": "view",
      "type": "function"
    },
    {
      "inputs": [],
      "name": "symbol",
      "outputs": [
        {
          "internalType": "string",
          "name": "",
          "type": "string"
        }
      ],
      "stateMutability": "view",
      "type": "function"
    },
    {
      "inputs": [],
      "name": "totalSupply",
      "outputs": [
        {
          "internalType": "uint256",
          "name": "",
          "type": "uint256"
        }
      ],
      "stateMutability": "view",
      "type": "function"
    },
    {
      "inputs": [
        {
          "internalType": "address",
          "name": "to",
          "type": "address"
        },
        {
          "internalType": "uint256",
          "name": "amount",
          "type": "uint256"
        }
      ],
      "name": "transfer",
      "outputs": [
        {
          "internalType": "bool",
          "name": "",
          "type": "bool"
        }
      ],
      "stateMutability": "nonpayable",
      "type": "function"
    },
    {
      "inputs": [
        {
          "internalType": "address",
          "name": "from",
          "type": "address"
        },
        {
          "internalType": "address",
          "name": "to",
          "type": "address"
        },
        {
          "internalType": "uint256",
          "name": "amount",
          "type": "uint256"
        }
      ],
      "name": "transferFrom",
      "outputs": [
        {
          "internalType": "bool",
          "name": "",
          "type": "bool"
        }
      ],
      "stateMutability": "nonpayable",
      "type": "function"
    },
    {
      "inputs": [
        {
          "internalType": "address",
          "name": "LSBank",
          "type": "address"
        }
      ],
      "name": "changeMinter",
      "outputs": [],
      "stateMutability": "nonpayable",
      "type": "function"
    },
    {
      "inputs": [
        {
          "internalType": "address",
          "name": "LSbank",
          "type": "address"
        },
        {
          "internalType": "address",
          "name": "account",
          "type": "address"
        },
        {
          "internalType": "uint256",
          "name": "amount",
          "type": "uint256"
        }
      ],
      "name": "mintTKN",
      "outputs": [],
      "stateMutability": "nonpayable",
      "type": "function"
    }
  ],
  "bytecode": "0x60806040526040518060400160405280600e81526020017f4c5320456e67696e652042616e6b0000000000000000000000000000000000008152506040518060400160405280600381526020017f4c53420000000000000000000000000000000000000000000000000000000000815250816003908051906020019062000088929190620000eb565b508060049080519060200190620000a1929190620000eb565b50505033600560006101000a81548173ffffffffffffffffffffffffffffffffffffffff021916908373ffffffffffffffffffffffffffffffffffffffff16021790555062000200565b828054620000f9906200019b565b90600052602060002090601f0160209004810192826200011d576000855562000169565b82601f106200013857805160ff191683800117855562000169565b8280016001018555821562000169579182015b82811115620001685782518255916020019190600101906200014b565b5b5090506200017891906200017c565b5090565b5b80821115620001975760008160009055506001016200017d565b5090565b60006002820490506001821680620001b457607f821691505b60208210811415620001cb57620001ca620001d1565b5b50919050565b7f4e487b7100000000000000000000000000000000000000000000000000000000600052602260045260246000fd5b61179f80620002106000396000f3fe608060405234801561001057600080fd5b50600436106100ea5760003560e01c8063313ce5671161008c57806395d89b411161006657806395d89b411461025f578063a457c2d71461027d578063a9059cbb146102ad578063dd62ed3e146102dd576100ea565b8063313ce567146101e157806339509351146101ff57806370a082311461022f576100ea565b806318160ddd116100c857806318160ddd1461015b57806323b872dd1461017957806327fe19cf146101a95780632c4d4d18146101c5576100ea565b806306fdde03146100ef578063075461721461010d578063095ea7b31461012b575b600080fd5b6100f761030d565b604051610104919061118a565b60405180910390f35b61011561039f565b6040516101229190611154565b60405180910390f35b61014560048036038101906101409190610f45565b6103c5565b604051610152919061116f565b60405180910390f35b6101636103e8565b60405161017091906112ec565b60405180910390f35b610193600480360381019061018e9190610ef6565b6103f2565b6040516101a0919061116f565b60405180910390f35b6101c360048036038101906101be9190610ef6565b610421565b005b6101df60048036038101906101da9190610e91565b6104c0565b005b6101e96105e2565b6040516101f69190611307565b60405180910390f35b61021960048036038101906102149190610f45565b6105eb565b604051610226919061116f565b60405180910390f35b61024960048036038101906102449190610e91565b610622565b60405161025691906112ec565b60405180910390f35b61026761066a565b604051610274919061118a565b60405180910390f35b61029760048036038101906102929190610f45565b6106fc565b6040516102a4919061116f565b60405180910390f35b6102c760048036038101906102c29190610f45565b610773565b6040516102d4919061116f565b60405180910390f35b6102f760048036038101906102f29190610eba565b610796565b60405161030491906112ec565b60405180910390f35b60606003805461031c9061141c565b80601f01602080910402602001604051908101604052809291908181526020018280546103489061141c565b80156103955780601f1061036a57610100808354040283529160200191610395565b820191906000526020600020905b81548152906001019060200180831161037857829003601f168201915b5050505050905090565b600560009054906101000a900473ffffffffffffffffffffffffffffffffffffffff1681565b6000806103d061081d565b90506103dd818585610825565b600191505092915050565b6000600254905090565b6000806103fd61081d565b905061040a8582856109f0565b610415858585610a7c565b60019150509392505050565b600560009054906101000a900473ffffffffffffffffffffffffffffffffffffffff1673ffffffffffffffffffffffffffffffffffffffff168373ffffffffffffffffffffffffffffffffffffffff16146104b1576040517f08c379a00000000000000000000000000000000000000000000000000000000081526004016104a89061128c565b60405180910390fd5b6104bb8282610cfd565b505050565b600560009054906101000a900473ffffffffffffffffffffffffffffffffffffffff1673ffffffffffffffffffffffffffffffffffffffff163373ffffffffffffffffffffffffffffffffffffffff1614610550576040517f08c379a00000000000000000000000000000000000000000000000000000000081526004016105479061122c565b60405180910390fd5b80600560006101000a81548173ffffffffffffffffffffffffffffffffffffffff021916908373ffffffffffffffffffffffffffffffffffffffff1602179055503373ffffffffffffffffffffffffffffffffffffffff167f3b0007eb941cf645526cbb3a4fdaecda9d28ce4843167d9263b536a1f1edc0f6826040516105d79190611154565b60405180910390a250565b60006012905090565b6000806105f661081d565b90506106178185856106088589610796565b610612919061133e565b610825565b600191505092915050565b60008060008373ffffffffffffffffffffffffffffffffffffffff1673ffffffffffffffffffffffffffffffffffffffff168152602001908152602001600020549050919050565b6060600480546106799061141c565b80601f01602080910402602001604051908101604052809291908181526020018280546106a59061141c565b80156106f25780601f106106c7576101008083540402835291602001916106f2565b820191906000526020600020905b8154815290600101906020018083116106d557829003601f168201915b5050505050905090565b60008061070761081d565b905060006107158286610796565b90508381101561075a576040517f08c379a0000000000000000000000000000000000000000000000000000000008152600401610751906112ac565b60405180910390fd5b6107678286868403610825565b60019250505092915050565b60008061077e61081d565b905061078b818585610a7c565b600191505092915050565b6000600160008473ffffffffffffffffffffffffffffffffffffffff1673ffffffffffffffffffffffffffffffffffffffff16815260200190815260200160002060008373ffffffffffffffffffffffffffffffffffffffff1673ffffffffffffffffffffffffffffffffffffffff16815260200190815260200160002054905092915050565b600033905090565b600073ffffffffffffffffffffffffffffffffffffffff168373ffffffffffffffffffffffffffffffffffffffff161415610895576040517f08c379a000000000000000000000000000000000000000000000000000000000815260040161088c9061126c565b60405180910390fd5b600073ffffffffffffffffffffffffffffffffffffffff168273ffffffffffffffffffffffffffffffffffffffff161415610905576040517f08c379a00000000000000000000000000000000000000000000000000000000081526004016108fc906111cc565b60405180910390fd5b80600160008573ffffffffffffffffffffffffffffffffffffffff1673ffffffffffffffffffffffffffffffffffffffff16815260200190815260200160002060008473ffffffffffffffffffffffffffffffffffffffff1673ffffffffffffffffffffffffffffffffffffffff168152602001908152602001600020819055508173ffffffffffffffffffffffffffffffffffffffff168373ffffffffffffffffffffffffffffffffffffffff167f8c5be1e5ebec7d5bd14f71427d1e84f3dd0314c0f7b2291e5b200ac8c7c3b925836040516109e391906112ec565b60405180910390a3505050565b60006109fc8484610796565b90507fffffffffffffffffffffffffffffffffffffffffffffffffffffffffffffffff8114610a765781811015610a68576040517f08c379a0000000000000000000000000000000000000000000000000000000008152600401610a5f906111ec565b60405180910390fd5b610a758484848403610825565b5b50505050565b600073ffffffffffffffffffffffffffffffffffffffff168373ffffffffffffffffffffffffffffffffffffffff161415610aec576040517f08c379a0000000000000000000000000000000000000000000000000000000008152600401610ae39061124c565b60405180910390fd5b600073ffffffffffffffffffffffffffffffffffffffff168273ffffffffffffffffffffffffffffffffffffffff161415610b5c576040517f08c379a0000000000000000000000000000000000000000000000000000000008152600401610b53906111ac565b60405180910390fd5b610b67838383610e5d565b60008060008573ffffffffffffffffffffffffffffffffffffffff1673ffffffffffffffffffffffffffffffffffffffff16815260200190815260200160002054905081811015610bed576040517f08c379a0000000000000000000000000000000000000000000000000000000008152600401610be49061120c565b60405180910390fd5b8181036000808673ffffffffffffffffffffffffffffffffffffffff1673ffffffffffffffffffffffffffffffffffffffff16815260200190815260200160002081905550816000808573ffffffffffffffffffffffffffffffffffffffff1673ffffffffffffffffffffffffffffffffffffffff1681526020019081526020016000206000828254610c80919061133e565b925050819055508273ffffffffffffffffffffffffffffffffffffffff168473ffffffffffffffffffffffffffffffffffffffff167fddf252ad1be2c89b69c2b068fc378daa952ba7f163c4a11628f55a4df523b3ef84604051610ce491906112ec565b60405180910390a3610cf7848484610e62565b50505050565b600073ffffffffffffffffffffffffffffffffffffffff168273ffffffffffffffffffffffffffffffffffffffff161415610d6d576040517f08c379a0000000000000000000000000000000000000000000000000000000008152600401610d64906112cc565b60405180910390fd5b610d7960008383610e5d565b8060026000828254610d8b919061133e565b92505081905550806000808473ffffffffffffffffffffffffffffffffffffffff1673ffffffffffffffffffffffffffffffffffffffff1681526020019081526020016000206000828254610de0919061133e565b925050819055508173ffffffffffffffffffffffffffffffffffffffff16600073ffffffffffffffffffffffffffffffffffffffff167fddf252ad1be2c89b69c2b068fc378daa952ba7f163c4a11628f55a4df523b3ef83604051610e4591906112ec565b60405180910390a3610e5960008383610e62565b5050565b505050565b505050565b600081359050610e768161173b565b92915050565b600081359050610e8b81611752565b92915050565b600060208284031215610ea357600080fd5b6000610eb184828501610e67565b91505092915050565b60008060408385031215610ecd57600080fd5b6000610edb85828601610e67565b9250506020610eec85828601610e67565b9150509250929050565b600080600060608486031215610f0b57600080fd5b6000610f1986828701610e67565b9350506020610f2a86828701610e67565b9250506040610f3b86828701610e7c565b9150509250925092565b60008060408385031215610f5857600080fd5b6000610f6685828601610e67565b9250506020610f7785828601610e7c565b9150509250929050565b610f8a81611394565b82525050565b610f99816113a6565b82525050565b6000610faa82611322565b610fb4818561132d565b9350610fc48185602086016113e9565b610fcd816114ac565b840191505092915050565b6000610fe560238361132d565b9150610ff0826114bd565b604082019050919050565b600061100860228361132d565b91506110138261150c565b604082019050919050565b600061102b601d8361132d565b91506110368261155b565b602082019050919050565b600061104e60268361132d565b915061105982611584565b604082019050919050565b6000611071600b8361132d565b915061107c826115d3565b602082019050919050565b600061109460258361132d565b915061109f826115fc565b604082019050919050565b60006110b760248361132d565b91506110c28261164b565b604082019050919050565b60006110da60118361132d565b91506110e58261169a565b602082019050919050565b60006110fd60258361132d565b9150611108826116c3565b604082019050919050565b6000611120601f8361132d565b915061112b82611712565b602082019050919050565b61113f816113d2565b82525050565b61114e816113dc565b82525050565b60006020820190506111696000830184610f81565b92915050565b60006020820190506111846000830184610f90565b92915050565b600060208201905081810360008301526111a48184610f9f565b905092915050565b600060208201905081810360008301526111c581610fd8565b9050919050565b600060208201905081810360008301526111e581610ffb565b9050919050565b600060208201905081810360008301526112058161101e565b9050919050565b6000602082019050818103600083015261122581611041565b9050919050565b6000602082019050818103600083015261124581611064565b9050919050565b6000602082019050818103600083015261126581611087565b9050919050565b60006020820190508181036000830152611285816110aa565b9050919050565b600060208201905081810360008301526112a5816110cd565b9050919050565b600060208201905081810360008301526112c5816110f0565b9050919050565b600060208201905081810360008301526112e581611113565b9050919050565b60006020820190506113016000830184611136565b92915050565b600060208201905061131c6000830184611145565b92915050565b600081519050919050565b600082825260208201905092915050565b6000611349826113d2565b9150611354836113d2565b9250827fffffffffffffffffffffffffffffffffffffffffffffffffffffffffffffffff038211156113895761138861144e565b5b828201905092915050565b600061139f826113b2565b9050919050565b60008115159050919050565b600073ffffffffffffffffffffffffffffffffffffffff82169050919050565b6000819050919050565b600060ff82169050919050565b60005b838110156114075780820151818401526020810190506113ec565b83811115611416576000848401525b50505050565b6000600282049050600182168061143457607f821691505b602082108114156114485761144761147d565b5b50919050565b7f4e487b7100000000000000000000000000000000000000000000000000000000600052601160045260246000fd5b7f4e487b7100000000000000000000000000000000000000000000000000000000600052602260045260246000fd5b6000601f19601f8301169050919050565b7f45524332303a207472616e7366657220746f20746865207a65726f206164647260008201527f6573730000000000000000000000000000000000000000000000000000000000602082015250565b7f45524332303a20617070726f766520746f20746865207a65726f20616464726560008201527f7373000000000000000000000000000000000000000000000000000000000000602082015250565b7f45524332303a20696e73756666696369656e7420616c6c6f77616e6365000000600082015250565b7f45524332303a207472616e7366657220616d6f756e742065786365656473206260008201527f616c616e63650000000000000000000000000000000000000000000000000000602082015250565b7f4f6e6c79204d696e746572000000000000000000000000000000000000000000600082015250565b7f45524332303a207472616e736665722066726f6d20746865207a65726f20616460008201527f6472657373000000000000000000000000000000000000000000000000000000602082015250565b7f45524332303a20617070726f76652066726f6d20746865207a65726f2061646460008201527f7265737300000000000000000000000000000000000000000000000000000000602082015250565b7f4e65656473204d696e74657220526f6c65000000000000000000000000000000600082015250565b7f45524332303a2064656372656173656420616c6c6f77616e63652062656c6f7760008201527f207a65726f000000000000000000000000000000000000000000000000000000602082015250565b7f45524332303a206d696e7420746f20746865207a65726f206164647265737300600082015250565b61174481611394565b811461174f57600080fd5b50565b61175b816113d2565b811461176657600080fd5b5056fea2646970667358221220c3beb71230b91d53cfc3f9003ce7c74fad7cc3b2c63344dfde5067bfe21241bb64736f6c63430008040033",
  "immutableReferences": {},
  "source": "// SPDX-License-Identifier: MIT\r\npragma solidity ^0.8.0;\r\n\r\nimport \"./openzeppelin/ERC20.sol\";\r\n\r\ncontract LSToken is ERC20 {\r\n    address public minter;\r\n\r\n    constructor() payable ERC20(\"LS Engine Bank\", \"LSB\") {\r\n        minter = msg.sender;\r\n    }\r\n\r\n    event MinterChanged(address indexed from, address to);\r\n\r\n    function changeMinter(address LSBank) public {\r\n        require(msg.sender == minter, \"Only Minter\");\r\n\r\n        minter = LSBank;\r\n\r\n        emit MinterChanged(msg.sender, LSBank);\r\n    }\r\n\r\n    function mintTKN(\r\n        address LSbank,\r\n        address account,\r\n        uint256 amount\r\n    ) public {\r\n        require(LSbank == minter, \"Needs Minter Role\");\r\n        _mint(account, amount);\r\n    }\r\n}\r\n",
  "sourcePath": "C:\\Users\\roone\\Desktop\\Apex\\Falcon\\bobr\\contracts\\LSToken.sol",
  "compiler": {
    "name": "solc",
    "version": "0.8.4+commit.c7e474f2.Emscripten.clang"
  },
  "schemaVersion": "3.4.4",
  "updatedAt": "2022-03-15T02:31:05.196Z",
  "devdoc": {
    "kind": "dev",
    "methods": {
      "allowance(address,address)": {
        "details": "See {IERC20-allowance}."
      },
      "approve(address,uint256)": {
        "details": "See {IERC20-approve}. NOTE: If `amount` is the maximum `uint256`, the allowance is not updated on `transferFrom`. This is semantically equivalent to an infinite approval. Requirements: - `spender` cannot be the zero address."
      },
      "balanceOf(address)": {
        "details": "See {IERC20-balanceOf}."
      },
      "decimals()": {
        "details": "Returns the number of decimals used to get its user representation. For example, if `decimals` equals `2`, a balance of `505` tokens should be displayed to a user as `5.05` (`505 / 10 ** 2`). Tokens usually opt for a value of 18, imitating the relationship between Ether and Wei. This is the value {ERC20} uses, unless this function is overridden; NOTE: This information is only used for _display_ purposes: it in no way affects any of the arithmetic of the contract, including {IERC20-balanceOf} and {IERC20-transfer}."
      },
      "decreaseAllowance(address,uint256)": {
        "details": "Atomically decreases the allowance granted to `spender` by the caller. This is an alternative to {approve} that can be used as a mitigation for problems described in {IERC20-approve}. Emits an {Approval} event indicating the updated allowance. Requirements: - `spender` cannot be the zero address. - `spender` must have allowance for the caller of at least `subtractedValue`."
      },
      "increaseAllowance(address,uint256)": {
        "details": "Atomically increases the allowance granted to `spender` by the caller. This is an alternative to {approve} that can be used as a mitigation for problems described in {IERC20-approve}. Emits an {Approval} event indicating the updated allowance. Requirements: - `spender` cannot be the zero address."
      },
      "name()": {
        "details": "Returns the name of the token."
      },
      "symbol()": {
        "details": "Returns the symbol of the token, usually a shorter version of the name."
      },
      "totalSupply()": {
        "details": "See {IERC20-totalSupply}."
      },
      "transfer(address,uint256)": {
        "details": "See {IERC20-transfer}. Requirements: - `to` cannot be the zero address. - the caller must have a balance of at least `amount`."
      },
      "transferFrom(address,address,uint256)": {
        "details": "See {IERC20-transferFrom}. Emits an {Approval} event indicating the updated allowance. This is not required by the EIP. See the note at the beginning of {ERC20}. NOTE: Does not update the allowance if the current allowance is the maximum `uint256`. Requirements: - `from` and `to` cannot be the zero address. - `from` must have a balance of at least `amount`. - the caller must have allowance for ``from``'s tokens of at least `amount`."
      }
    },
    "version": 1
  },
  "userdoc": {
    "kind": "user",
    "methods": {},
    "version": 1
  }
}